{
  "_format": "hh-sol-artifact-1",
  "contractName": "Voting",
  "sourceName": "contracts/Voting.sol",
  "abi": [
    {
      "inputs": [],
      "stateMutability": "nonpayable",
      "type": "constructor"
    },
    {
      "inputs": [
        {
          "internalType": "uint256",
          "name": "_electionId",
          "type": "uint256"
        },
        {
          "internalType": "string",
          "name": "_partyName",
          "type": "string"
        }
      ],
      "name": "addParty",
      "outputs": [],
      "stateMutability": "nonpayable",
      "type": "function"
    },
    {
      "inputs": [],
      "name": "admin",
      "outputs": [
        {
          "internalType": "address",
          "name": "",
          "type": "address"
        }
      ],
      "stateMutability": "view",
      "type": "function"
    },
    {
      "inputs": [
        {
          "internalType": "uint256",
          "name": "_electionId",
          "type": "uint256"
        },
        {
          "internalType": "string",
          "name": "_name",
          "type": "string"
        }
      ],
      "name": "createElection",
      "outputs": [],
      "stateMutability": "nonpayable",
      "type": "function"
    },
    {
      "inputs": [],
      "name": "electionCount",
      "outputs": [
        {
          "internalType": "uint256",
          "name": "",
          "type": "uint256"
        }
      ],
      "stateMutability": "view",
      "type": "function"
    },
    {
      "inputs": [
        {
          "internalType": "uint256",
          "name": "",
          "type": "uint256"
        }
      ],
      "name": "elections",
      "outputs": [
        {
          "internalType": "string",
          "name": "name",
          "type": "string"
        },
        {
          "internalType": "bool",
          "name": "isActive",
          "type": "bool"
        }
      ],
      "stateMutability": "view",
      "type": "function"
    },
    {
      "inputs": [
        {
          "internalType": "uint256",
          "name": "_electionId",
          "type": "uint256"
        }
      ],
      "name": "endElection",
      "outputs": [],
      "stateMutability": "nonpayable",
      "type": "function"
    },
    {
      "inputs": [
        {
          "internalType": "uint256",
          "name": "_electionId",
          "type": "uint256"
        }
      ],
      "name": "getElectionDetails",
      "outputs": [
        {
          "internalType": "string",
          "name": "",
          "type": "string"
        },
        {
          "internalType": "bool",
          "name": "",
          "type": "bool"
        },
        {
          "internalType": "string[]",
          "name": "",
          "type": "string[]"
        }
      ],
      "stateMutability": "view",
      "type": "function"
    },
    {
      "inputs": [
        {
          "internalType": "uint256",
          "name": "_electionId",
          "type": "uint256"
        }
      ],
      "name": "getResults",
      "outputs": [
        {
          "internalType": "string[]",
          "name": "",
          "type": "string[]"
        },
        {
          "internalType": "uint256[]",
          "name": "",
          "type": "uint256[]"
        }
      ],
      "stateMutability": "view",
      "type": "function"
    },
    {
      "inputs": [
        {
          "internalType": "uint256",
          "name": "_electionId",
          "type": "uint256"
        },
        {
          "internalType": "string",
          "name": "_party",
          "type": "string"
        }
      ],
      "name": "vote",
      "outputs": [],
      "stateMutability": "nonpayable",
      "type": "function"
    }
  ],
  "bytecode": "0x6080604052348015600f57600080fd5b50336000806101000a81548173ffffffffffffffffffffffffffffffffffffffff021916908373ffffffffffffffffffffffffffffffffffffffff16021790555061180a8061005f6000396000f3fe608060405234801561001057600080fd5b50600436106100935760003560e01c8063997d283011610066578063997d2830146101325780639c98bcbb14610150578063f5ea01061461016c578063f604992414610188578063f851a440146101ba57610093565b806324108475146100985780635e6fef01146100b45780637da09d94146100e557806381a60c0d14610101575b600080fd5b6100b260048036038101906100ad9190610cda565b6101d8565b005b6100ce60048036038101906100c99190610d36565b610411565b6040516100dc929190610dfd565b60405180910390f35b6100ff60048036038101906100fa9190610cda565b6104ca565b005b61011b60048036038101906101169190610d36565b6105af565b604051610129929190610ff7565b60405180910390f35b61013a61077e565b604051610147919061103d565b60405180910390f35b61016a60048036038101906101659190610d36565b610784565b005b61018660048036038101906101819190610cda565b610844565b005b6101a2600480360381019061019d9190610d36565b610982565b6040516101b193929190611058565b60405180910390f35b6101c2610b26565b6040516101cf91906110de565b60405180910390f35b60006002600084815260200190815260200160002090508060010160009054906101000a900460ff16610240576040517f08c379a000000000000000000000000000000000000000000000000000000000815260040161023790611145565b60405180910390fd5b8060040160003373ffffffffffffffffffffffffffffffffffffffff1673ffffffffffffffffffffffffffffffffffffffff16815260200190815260200160002060009054906101000a900460ff16156102cf576040517f08c379a00000000000000000000000000000000000000000000000000000000081526004016102c6906111b1565b60405180910390fd5b6000805b826002018054905081101561033a578380519060200120836002018281548110610300576102ff6111d1565b5b906000526020600020016040516103179190611303565b60405180910390200361032d576001915061033a565b80806001019150506102d3565b508061037b576040517f08c379a000000000000000000000000000000000000000000000000000000000815260040161037290611366565b60405180910390fd5b816003018360405161038d91906113c2565b908152602001604051809103902060008154809291906103ac90611408565b919050555060018260040160003373ffffffffffffffffffffffffffffffffffffffff1673ffffffffffffffffffffffffffffffffffffffff16815260200190815260200160002060006101000a81548160ff02191690831515021790555050505050565b60026020528060005260406000206000915090508060000180546104349061122f565b80601f01602080910402602001604051908101604052809291908181526020018280546104609061122f565b80156104ad5780601f10610482576101008083540402835291602001916104ad565b820191906000526020600020905b81548152906001019060200180831161049057829003601f168201915b5050505050908060010160009054906101000a900460ff16905082565b60008054906101000a900473ffffffffffffffffffffffffffffffffffffffff1673ffffffffffffffffffffffffffffffffffffffff163373ffffffffffffffffffffffffffffffffffffffff1614610558576040517f08c379a000000000000000000000000000000000000000000000000000000000815260040161054f9061149c565b60405180910390fd5b8060026000848152602001908152602001600020600001908161057b9190611668565b5060016002600084815260200190815260200160002060010160006101000a81548160ff0219169083151502179055505050565b606080600060026000858152602001908152602001600020905060008160020180549050905060008167ffffffffffffffff8111156105f1576105f0610baf565b5b60405190808252806020026020018201604052801561061f5781602001602082028036833780820191505090505b50905060005b828110156106995783600301846002018281548110610647576106466111d1565b5b9060005260206000200160405161065e91906117bd565b9081526020016040518091039020548282815181106106805761067f6111d1565b5b6020026020010181815250508080600101915050610625565b50826002018181805480602002602001604051908101604052809291908181526020016000905b8282101561076c5783829060005260206000200180546106df9061122f565b80601f016020809104026020016040519081016040528092919081815260200182805461070b9061122f565b80156107585780601f1061072d57610100808354040283529160200191610758565b820191906000526020600020905b81548152906001019060200180831161073b57829003601f168201915b5050505050815260200190600101906106c0565b50505050915094509450505050915091565b60015481565b60008054906101000a900473ffffffffffffffffffffffffffffffffffffffff1673ffffffffffffffffffffffffffffffffffffffff163373ffffffffffffffffffffffffffffffffffffffff1614610812576040517f08c379a00000000000000000000000000000000000000000000000000000000081526004016108099061149c565b60405180910390fd5b60006002600083815260200190815260200160002060010160006101000a81548160ff02191690831515021790555050565b60008054906101000a900473ffffffffffffffffffffffffffffffffffffffff1673ffffffffffffffffffffffffffffffffffffffff163373ffffffffffffffffffffffffffffffffffffffff16146108d2576040517f08c379a00000000000000000000000000000000000000000000000000000000081526004016108c99061149c565b60405180910390fd5b6002600083815260200190815260200160002060010160009054906101000a900460ff16610935576040517f08c379a000000000000000000000000000000000000000000000000000000000815260040161092c90611145565b60405180910390fd5b600260008381526020019081526020016000206002018190806001815401808255809150506001900390600052602060002001600090919091909150908161097d9190611668565b505050565b6060600060606000600260008681526020019081526020016000209050806000018160010160009054906101000a900460ff16826002018280546109c59061122f565b80601f01602080910402602001604051908101604052809291908181526020018280546109f19061122f565b8015610a3e5780601f10610a1357610100808354040283529160200191610a3e565b820191906000526020600020905b815481529060010190602001808311610a2157829003601f168201915b5050505050925080805480602002602001604051908101604052809291908181526020016000905b82821015610b12578382906000526020600020018054610a859061122f565b80601f0160208091040260200160405190810160405280929190818152602001828054610ab19061122f565b8015610afe5780601f10610ad357610100808354040283529160200191610afe565b820191906000526020600020905b815481529060010190602001808311610ae157829003601f168201915b505050505081526020019060010190610a66565b505050509050935093509350509193909250565b60008054906101000a900473ffffffffffffffffffffffffffffffffffffffff1681565b6000604051905090565b600080fd5b600080fd5b6000819050919050565b610b7181610b5e565b8114610b7c57600080fd5b50565b600081359050610b8e81610b68565b92915050565b600080fd5b600080fd5b6000601f19601f8301169050919050565b7f4e487b7100000000000000000000000000000000000000000000000000000000600052604160045260246000fd5b610be782610b9e565b810181811067ffffffffffffffff82111715610c0657610c05610baf565b5b80604052505050565b6000610c19610b4a565b9050610c258282610bde565b919050565b600067ffffffffffffffff821115610c4557610c44610baf565b5b610c4e82610b9e565b9050602081019050919050565b82818337600083830152505050565b6000610c7d610c7884610c2a565b610c0f565b905082815260208101848484011115610c9957610c98610b99565b5b610ca4848285610c5b565b509392505050565b600082601f830112610cc157610cc0610b94565b5b8135610cd1848260208601610c6a565b91505092915050565b60008060408385031215610cf157610cf0610b54565b5b6000610cff85828601610b7f565b925050602083013567ffffffffffffffff811115610d2057610d1f610b59565b5b610d2c85828601610cac565b9150509250929050565b600060208284031215610d4c57610d4b610b54565b5b6000610d5a84828501610b7f565b91505092915050565b600081519050919050565b600082825260208201905092915050565b60005b83811015610d9d578082015181840152602081019050610d82565b60008484015250505050565b6000610db482610d63565b610dbe8185610d6e565b9350610dce818560208601610d7f565b610dd781610b9e565b840191505092915050565b60008115159050919050565b610df781610de2565b82525050565b60006040820190508181036000830152610e178185610da9565b9050610e266020830184610dee565b9392505050565b600081519050919050565b600082825260208201905092915050565b6000819050602082019050919050565b600082825260208201905092915050565b6000610e7582610d63565b610e7f8185610e59565b9350610e8f818560208601610d7f565b610e9881610b9e565b840191505092915050565b6000610eaf8383610e6a565b905092915050565b6000602082019050919050565b6000610ecf82610e2d565b610ed98185610e38565b935083602082028501610eeb85610e49565b8060005b85811015610f275784840389528151610f088582610ea3565b9450610f1383610eb7565b925060208a01995050600181019050610eef565b50829750879550505050505092915050565b600081519050919050565b600082825260208201905092915050565b6000819050602082019050919050565b610f6e81610b5e565b82525050565b6000610f808383610f65565b60208301905092915050565b6000602082019050919050565b6000610fa482610f39565b610fae8185610f44565b9350610fb983610f55565b8060005b83811015610fea578151610fd18882610f74565b9750610fdc83610f8c565b925050600181019050610fbd565b5085935050505092915050565b600060408201905081810360008301526110118185610ec4565b905081810360208301526110258184610f99565b90509392505050565b61103781610b5e565b82525050565b6000602082019050611052600083018461102e565b92915050565b600060608201905081810360008301526110728186610da9565b90506110816020830185610dee565b81810360408301526110938184610ec4565b9050949350505050565b600073ffffffffffffffffffffffffffffffffffffffff82169050919050565b60006110c88261109d565b9050919050565b6110d8816110bd565b82525050565b60006020820190506110f360008301846110cf565b92915050565b7f456c656374696f6e206e6f742061637469766500000000000000000000000000600082015250565b600061112f601383610d6e565b915061113a826110f9565b602082019050919050565b6000602082019050818103600083015261115e81611122565b9050919050565b7f416c726561647920766f74656400000000000000000000000000000000000000600082015250565b600061119b600d83610d6e565b91506111a682611165565b602082019050919050565b600060208201905081810360008301526111ca8161118e565b9050919050565b7f4e487b7100000000000000000000000000000000000000000000000000000000600052603260045260246000fd5b7f4e487b7100000000000000000000000000000000000000000000000000000000600052602260045260246000fd5b6000600282049050600182168061124757607f821691505b60208210810361125a57611259611200565b5b50919050565b600081905092915050565b60008190508160005260206000209050919050565b6000815461128d8161122f565b6112978186611260565b945060018216600081146112b257600181146112c7576112fa565b60ff19831686528115158202860193506112fa565b6112d08561126b565b60005b838110156112f2578154818901526001820191506020810190506112d3565b838801955050505b50505092915050565b600061130f8284611280565b915081905092915050565b7f496e76616c696420706172747900000000000000000000000000000000000000600082015250565b6000611350600d83610d6e565b915061135b8261131a565b602082019050919050565b6000602082019050818103600083015261137f81611343565b9050919050565b600081905092915050565b600061139c82610d63565b6113a68185611386565b93506113b6818560208601610d7f565b80840191505092915050565b60006113ce8284611391565b915081905092915050565b7f4e487b7100000000000000000000000000000000000000000000000000000000600052601160045260246000fd5b600061141382610b5e565b91507fffffffffffffffffffffffffffffffffffffffffffffffffffffffffffffffff8203611445576114446113d9565b5b600182019050919050565b7f4f6e6c792061646d696e2063616e20706572666f726d20746869730000000000600082015250565b6000611486601b83610d6e565b915061149182611450565b602082019050919050565b600060208201905081810360008301526114b581611479565b9050919050565b60008190508160005260206000209050919050565b60006020601f8301049050919050565b600082821b905092915050565b60006008830261151e7fffffffffffffffffffffffffffffffffffffffffffffffffffffffffffffffff826114e1565b61152886836114e1565b95508019841693508086168417925050509392505050565b6000819050919050565b600061156561156061155b84610b5e565b611540565b610b5e565b9050919050565b6000819050919050565b61157f8361154a565b61159361158b8261156c565b8484546114ee565b825550505050565b600090565b6115a861159b565b6115b3818484611576565b505050565b5b818110156115d7576115cc6000826115a0565b6001810190506115b9565b5050565b601f82111561161c576115ed816114bc565b6115f6846114d1565b81016020851015611605578190505b611619611611856114d1565b8301826115b8565b50505b505050565b600082821c905092915050565b600061163f60001984600802611621565b1980831691505092915050565b6000611658838361162e565b9150826002028217905092915050565b61167182610d63565b67ffffffffffffffff81111561168a57611689610baf565b5b611694825461122f565b61169f8282856115db565b600060209050601f8311600181146116d257600084156116c0578287015190505b6116ca858261164c565b865550611732565b601f1984166116e0866114bc565b60005b82811015611708578489015182556001820191506020850194506020810190506116e3565b868310156117255784890151611721601f89168261162e565b8355505b6001600288020188555050505b505050505050565b600081546117478161122f565b6117518186611386565b9450600182166000811461176c5760018114611781576117b4565b60ff19831686528115158202860193506117b4565b61178a856114bc565b60005b838110156117ac5781548189015260018201915060208101905061178d565b838801955050505b50505092915050565b60006117c9828461173a565b91508190509291505056fea26469706673582212203351b64bd5fa1d26a7069d0d5690722bf8f0b01954c317b1058e6b63ea938e6164736f6c634300081c0033",
  "linkReferences": {},
  "deployedLinkReferences": {}
}